{
  "contractName": "ContractBase",
  "abi": [
    {
      "anonymous": false,
      "inputs": [
        {
          "indexed": true,
          "internalType": "address",
          "name": "previousOwner",
          "type": "address"
        },
        {
          "indexed": true,
          "internalType": "address",
          "name": "newOwner",
          "type": "address"
        }
      ],
      "name": "OwnershipTransferred",
      "type": "event"
    },
    {
      "inputs": [],
      "name": "crossChainContract",
      "outputs": [
        {
          "internalType": "contract ICrossChain",
          "name": "",
          "type": "address"
        }
      ],
      "stateMutability": "view",
      "type": "function"
    },
    {
      "inputs": [],
      "name": "owner",
      "outputs": [
        {
          "internalType": "address",
          "name": "",
          "type": "address"
        }
      ],
      "stateMutability": "view",
      "type": "function"
    },
    {
      "inputs": [],
      "name": "renounceOwnership",
      "outputs": [],
      "stateMutability": "nonpayable",
      "type": "function"
    },
    {
      "inputs": [
        {
          "internalType": "address",
          "name": "newOwner",
          "type": "address"
        }
      ],
      "name": "transferOwnership",
      "outputs": [],
      "stateMutability": "nonpayable",
      "type": "function"
    },
    {
      "inputs": [
        {
          "internalType": "address",
          "name": "_address",
          "type": "address"
        }
      ],
      "name": "setCrossChainContract",
      "outputs": [],
      "stateMutability": "nonpayable",
      "type": "function"
    },
    {
      "inputs": [],
      "name": "getContext",
      "outputs": [
        {
          "components": [
            {
              "internalType": "uint256",
              "name": "id",
              "type": "uint256"
            },
            {
              "internalType": "string",
              "name": "fromChain",
              "type": "string"
            },
            {
              "internalType": "string",
              "name": "sender",
              "type": "string"
            },
            {
              "internalType": "string",
              "name": "signer",
              "type": "string"
            },
            {
              "components": [
                {
                  "internalType": "enum SQoSType",
                  "name": "t",
                  "type": "uint8"
                },
                {
                  "internalType": "string",
                  "name": "v",
                  "type": "string"
                }
              ],
              "internalType": "struct SQoS[]",
              "name": "sqos",
              "type": "tuple[]"
            },
            {
              "internalType": "address",
              "name": "contractAddress",
              "type": "address"
            },
            {
              "internalType": "bytes4",
              "name": "action",
              "type": "bytes4"
            },
            {
              "components": [
                {
                  "internalType": "uint256",
                  "name": "id",
                  "type": "uint256"
                },
                {
                  "internalType": "bytes",
                  "name": "callback",
                  "type": "bytes"
                }
              ],
              "internalType": "struct Session",
              "name": "session",
              "type": "tuple"
            }
          ],
          "internalType": "struct SimplifiedMessage",
          "name": "",
          "type": "tuple"
        }
      ],
      "stateMutability": "view",
      "type": "function"
    }
  ],
  "bytecode": "0x608060405234801561001057600080fd5b5061002d61002261003260201b60201c565b61003a60201b60201c565b6100fe565b600033905090565b60008060009054906101000a900473ffffffffffffffffffffffffffffffffffffffff169050816000806101000a81548173ffffffffffffffffffffffffffffffffffffffff021916908373ffffffffffffffffffffffffffffffffffffffff1602179055508173ffffffffffffffffffffffffffffffffffffffff168173ffffffffffffffffffffffffffffffffffffffff167f8be0079c531659141344cd1fd0a4f28419497f9722a3daafe3b4186f6b6457e060405160405180910390a35050565b6110f78061010d6000396000f3fe608060405234801561001057600080fd5b50600436106100625760003560e01c8063127f0f071461006757806318d72b5414610085578063715018a6146100a15780638da5cb5b146100ab578063dbc90de1146100c9578063f2fde38b146100e7575b600080fd5b61006f610103565b60405161007c91906108bf565b60405180910390f35b61009f600480360381019061009a9190610921565b6101a6565b005b6100a96101f2565b005b6100b3610206565b6040516100c0919061095d565b60405180910390f35b6100d161022f565b6040516100de91906109d7565b60405180910390f35b61010160048036038101906100fc9190610921565b610255565b005b61010b610423565b600160009054906101000a900473ffffffffffffffffffffffffffffffffffffffff1673ffffffffffffffffffffffffffffffffffffffff16639af7a48c6040518163ffffffff1660e01b8152600401600060405180830381865afa158015610178573d6000803e3d6000fd5b505050506040513d6000823e3d601f19601f820116820180604052508101906101a19190610f69565b905090565b6101ae6102d9565b80600160006101000a81548173ffffffffffffffffffffffffffffffffffffffff021916908373ffffffffffffffffffffffffffffffffffffffff16021790555050565b6101fa6102d9565b6102046000610357565b565b60008060009054906101000a900473ffffffffffffffffffffffffffffffffffffffff16905090565b600160009054906101000a900473ffffffffffffffffffffffffffffffffffffffff1681565b61025d6102d9565b600073ffffffffffffffffffffffffffffffffffffffff168173ffffffffffffffffffffffffffffffffffffffff1614156102cd576040517f08c379a00000000000000000000000000000000000000000000000000000000081526004016102c490611035565b60405180910390fd5b6102d681610357565b50565b6102e161041b565b73ffffffffffffffffffffffffffffffffffffffff166102ff610206565b73ffffffffffffffffffffffffffffffffffffffff1614610355576040517f08c379a000000000000000000000000000000000000000000000000000000000815260040161034c906110a1565b60405180910390fd5b565b60008060009054906101000a900473ffffffffffffffffffffffffffffffffffffffff169050816000806101000a81548173ffffffffffffffffffffffffffffffffffffffff021916908373ffffffffffffffffffffffffffffffffffffffff1602179055508173ffffffffffffffffffffffffffffffffffffffff168173ffffffffffffffffffffffffffffffffffffffff167f8be0079c531659141344cd1fd0a4f28419497f9722a3daafe3b4186f6b6457e060405160405180910390a35050565b600033905090565b6040518061010001604052806000815260200160608152602001606081526020016060815260200160608152602001600073ffffffffffffffffffffffffffffffffffffffff16815260200160007bffffffffffffffffffffffffffffffffffffffffffffffffffffffff1916815260200161049d6104a3565b81525090565b604051806040016040528060008152602001606081525090565b6000819050919050565b6104d0816104bd565b82525050565b600081519050919050565b600082825260208201905092915050565b60005b838110156105105780820151818401526020810190506104f5565b8381111561051f576000848401525b50505050565b6000601f19601f8301169050919050565b6000610541826104d6565b61054b81856104e1565b935061055b8185602086016104f2565b61056481610525565b840191505092915050565b600081519050919050565b600082825260208201905092915050565b6000819050602082019050919050565b7f4e487b7100000000000000000000000000000000000000000000000000000000600052602160045260246000fd5b600981106105db576105da61059b565b5b50565b60008190506105ec826105ca565b919050565b60006105fc826105de565b9050919050565b61060c816105f1565b82525050565b600060408301600083015161062a6000860182610603565b50602083015184820360208601526106428282610536565b9150508091505092915050565b600061065b8383610612565b905092915050565b6000602082019050919050565b600061067b8261056f565b610685818561057a565b9350836020820285016106978561058b565b8060005b858110156106d357848403895281516106b4858261064f565b94506106bf83610663565b925060208a0199505060018101905061069b565b50829750879550505050505092915050565b600073ffffffffffffffffffffffffffffffffffffffff82169050919050565b6000610710826106e5565b9050919050565b61072081610705565b82525050565b60007fffffffff0000000000000000000000000000000000000000000000000000000082169050919050565b61075b81610726565b82525050565b600081519050919050565b600082825260208201905092915050565b600061078882610761565b610792818561076c565b93506107a28185602086016104f2565b6107ab81610525565b840191505092915050565b60006040830160008301516107ce60008601826104c7565b50602083015184820360208601526107e6828261077d565b9150508091505092915050565b60006101008301600083015161080c60008601826104c7565b50602083015184820360208601526108248282610536565b9150506040830151848203604086015261083e8282610536565b915050606083015184820360608601526108588282610536565b915050608083015184820360808601526108728282610670565b91505060a083015161088760a0860182610717565b5060c083015161089a60c0860182610752565b5060e083015184820360e08601526108b282826107b6565b9150508091505092915050565b600060208201905081810360008301526108d981846107f3565b905092915050565b6000604051905090565b600080fd5b600080fd5b6108fe81610705565b811461090957600080fd5b50565b60008135905061091b816108f5565b92915050565b600060208284031215610937576109366108eb565b5b60006109458482850161090c565b91505092915050565b61095781610705565b82525050565b6000602082019050610972600083018461094e565b92915050565b6000819050919050565b600061099d610998610993846106e5565b610978565b6106e5565b9050919050565b60006109af82610982565b9050919050565b60006109c1826109a4565b9050919050565b6109d1816109b6565b82525050565b60006020820190506109ec60008301846109c8565b92915050565b600080fd5b7f4e487b7100000000000000000000000000000000000000000000000000000000600052604160045260246000fd5b610a2f82610525565b810181811067ffffffffffffffff82111715610a4e57610a4d6109f7565b5b80604052505050565b6000610a616108e1565b9050610a6d8282610a26565b919050565b600080fd5b610a80816104bd565b8114610a8b57600080fd5b50565b600081519050610a9d81610a77565b92915050565b600080fd5b600080fd5b600067ffffffffffffffff821115610ac857610ac76109f7565b5b610ad182610525565b9050602081019050919050565b6000610af1610aec84610aad565b610a57565b905082815260208101848484011115610b0d57610b0c610aa8565b5b610b188482856104f2565b509392505050565b600082601f830112610b3557610b34610aa3565b5b8151610b45848260208601610ade565b91505092915050565b600067ffffffffffffffff821115610b6957610b686109f7565b5b602082029050602081019050919050565b600080fd5b60098110610b8c57600080fd5b50565b600081519050610b9e81610b7f565b92915050565b600060408284031215610bba57610bb96109f2565b5b610bc46040610a57565b90506000610bd484828501610b8f565b600083015250602082015167ffffffffffffffff811115610bf857610bf7610a72565b5b610c0484828501610b20565b60208301525092915050565b6000610c23610c1e84610b4e565b610a57565b90508083825260208201905060208402830185811115610c4657610c45610b7a565b5b835b81811015610c8d57805167ffffffffffffffff811115610c6b57610c6a610aa3565b5b808601610c788982610ba4565b85526020850194505050602081019050610c48565b5050509392505050565b600082601f830112610cac57610cab610aa3565b5b8151610cbc848260208601610c10565b91505092915050565b600081519050610cd4816108f5565b92915050565b610ce381610726565b8114610cee57600080fd5b50565b600081519050610d0081610cda565b92915050565b600067ffffffffffffffff821115610d2157610d206109f7565b5b610d2a82610525565b9050602081019050919050565b6000610d4a610d4584610d06565b610a57565b905082815260208101848484011115610d6657610d65610aa8565b5b610d718482856104f2565b509392505050565b600082601f830112610d8e57610d8d610aa3565b5b8151610d9e848260208601610d37565b91505092915050565b600060408284031215610dbd57610dbc6109f2565b5b610dc76040610a57565b90506000610dd784828501610a8e565b600083015250602082015167ffffffffffffffff811115610dfb57610dfa610a72565b5b610e0784828501610d79565b60208301525092915050565b60006101008284031215610e2a57610e296109f2565b5b610e35610100610a57565b90506000610e4584828501610a8e565b600083015250602082015167ffffffffffffffff811115610e6957610e68610a72565b5b610e7584828501610b20565b602083015250604082015167ffffffffffffffff811115610e9957610e98610a72565b5b610ea584828501610b20565b604083015250606082015167ffffffffffffffff811115610ec957610ec8610a72565b5b610ed584828501610b20565b606083015250608082015167ffffffffffffffff811115610ef957610ef8610a72565b5b610f0584828501610c97565b60808301525060a0610f1984828501610cc5565b60a08301525060c0610f2d84828501610cf1565b60c08301525060e082015167ffffffffffffffff811115610f5157610f50610a72565b5b610f5d84828501610da7565b60e08301525092915050565b600060208284031215610f7f57610f7e6108eb565b5b600082015167ffffffffffffffff811115610f9d57610f9c6108f0565b5b610fa984828501610e13565b91505092915050565b600082825260208201905092915050565b7f4f776e61626c653a206e6577206f776e657220697320746865207a65726f206160008201527f6464726573730000000000000000000000000000000000000000000000000000602082015250565b600061101f602683610fb2565b915061102a82610fc3565b604082019050919050565b6000602082019050818103600083015261104e81611012565b9050919050565b7f4f776e61626c653a2063616c6c6572206973206e6f7420746865206f776e6572600082015250565b600061108b602083610fb2565b915061109682611055565b602082019050919050565b600060208201905081810360008301526110ba8161107e565b905091905056fea26469706673582212204709a5f633879fa20b27a3f6a093598e6e61f9f0b95741028e81a5d7b5680c1a64736f6c634300080c0033",
  "immutableReferences": {},
  "source": "// SPDX-License-Identifier: MIT\npragma solidity >=0.8.0 <0.9.0;\nimport \"@openzeppelin/contracts/access/Ownable.sol\";\nimport \"@hthuang/contracts/interfaces/ICrossChain.sol\";\n\ncontract ContractBase is Ownable {\n    // Dante cross chain contract\n    ICrossChain public crossChainContract;\n\n    /**\n     * Set cross chain contract\n     * @param _address - cross chain contract address\n     */\n    function setCrossChainContract(address _address) public onlyOwner {\n        crossChainContract = ICrossChain(_address);\n    }\n\n    // return context info\n    function getContext() public view returns (SimplifiedMessage memory) {\n        return crossChainContract.getCurrentMessage();\n    }\n}\n",
  "sourcePath": "@hthuang/contracts/ContractBase.sol",
  "compiler": {
    "name": "solc",
    "version": "0.8.12+commit.f00d7308.Emscripten.clang"
  },
  "schemaVersion": "3.4.6",
  "updatedAt": "2022-07-13T08:07:18.631Z",
  "devdoc": {
    "kind": "dev",
    "methods": {
      "owner()": {
        "details": "Returns the address of the current owner."
      },
      "renounceOwnership()": {
        "details": "Leaves the contract without owner. It will not be possible to call `onlyOwner` functions anymore. Can only be called by the current owner. NOTE: Renouncing ownership will leave the contract without an owner, thereby removing any functionality that is only available to the owner."
      },
      "setCrossChainContract(address)": {
        "params": {
          "_address": "- cross chain contract address"
        }
      },
      "transferOwnership(address)": {
        "details": "Transfers ownership of the contract to a new account (`newOwner`). Can only be called by the current owner."
      }
    },
    "version": 1
  },
  "userdoc": {
    "kind": "user",
    "methods": {
      "setCrossChainContract(address)": {
        "notice": "Set cross chain contract"
      }
    },
    "version": 1
  }
}