{
  "contractName": "Locker",
  "abi": [
    {
      "anonymous": false,
      "inputs": [
        {
          "indexed": true,
          "internalType": "address",
          "name": "previousOwner",
          "type": "address"
        },
        {
          "indexed": true,
          "internalType": "address",
          "name": "newOwner",
          "type": "address"
        }
      ],
      "name": "OwnershipTransferred",
      "type": "event"
    },
    {
      "inputs": [],
      "name": "crossChainContract",
      "outputs": [
        {
          "internalType": "contract ICrossChain",
          "name": "",
          "type": "address"
        }
      ],
      "stateMutability": "view",
      "type": "function",
      "constant": true
    },
    {
      "inputs": [
        {
          "internalType": "string",
          "name": "",
          "type": "string"
        },
        {
          "internalType": "string",
          "name": "",
          "type": "string"
        }
      ],
      "name": "destnContractMap",
      "outputs": [
        {
          "internalType": "string",
          "name": "contractAddress",
          "type": "string"
        },
        {
          "internalType": "string",
          "name": "funcName",
          "type": "string"
        },
        {
          "internalType": "bool",
          "name": "used",
          "type": "bool"
        }
      ],
      "stateMutability": "view",
      "type": "function",
      "constant": true
    },
    {
      "inputs": [],
      "name": "getContext",
      "outputs": [
        {
          "components": [
            {
              "internalType": "uint256",
              "name": "id",
              "type": "uint256"
            },
            {
              "internalType": "string",
              "name": "fromChain",
              "type": "string"
            },
            {
              "internalType": "string",
              "name": "sender",
              "type": "string"
            },
            {
              "internalType": "string",
              "name": "signer",
              "type": "string"
            },
            {
              "components": [
                {
                  "internalType": "enum SQoSType",
                  "name": "t",
                  "type": "uint8"
                },
                {
                  "internalType": "string",
                  "name": "v",
                  "type": "string"
                }
              ],
              "internalType": "struct SQoS[]",
              "name": "sqos",
              "type": "tuple[]"
            },
            {
              "internalType": "address",
              "name": "contractAddress",
              "type": "address"
            },
            {
              "internalType": "bytes4",
              "name": "action",
              "type": "bytes4"
            },
            {
              "components": [
                {
                  "internalType": "uint256",
                  "name": "id",
                  "type": "uint256"
                },
                {
                  "internalType": "bytes",
                  "name": "callback",
                  "type": "bytes"
                }
              ],
              "internalType": "struct Session",
              "name": "session",
              "type": "tuple"
            }
          ],
          "internalType": "struct SimplifiedMessage",
          "name": "",
          "type": "tuple"
        }
      ],
      "stateMutability": "view",
      "type": "function",
      "constant": true
    },
    {
      "inputs": [],
      "name": "owner",
      "outputs": [
        {
          "internalType": "address",
          "name": "",
          "type": "address"
        }
      ],
      "stateMutability": "view",
      "type": "function",
      "constant": true
    },
    {
      "inputs": [
        {
          "internalType": "string",
          "name": "",
          "type": "string"
        },
        {
          "internalType": "bytes4",
          "name": "",
          "type": "bytes4"
        }
      ],
      "name": "permittedContractMap",
      "outputs": [
        {
          "internalType": "string",
          "name": "",
          "type": "string"
        }
      ],
      "stateMutability": "view",
      "type": "function",
      "constant": true
    },
    {
      "inputs": [],
      "name": "renounceOwnership",
      "outputs": [],
      "stateMutability": "nonpayable",
      "type": "function"
    },
    {
      "inputs": [
        {
          "internalType": "address",
          "name": "_address",
          "type": "address"
        }
      ],
      "name": "setCrossChainContract",
      "outputs": [],
      "stateMutability": "nonpayable",
      "type": "function"
    },
    {
      "inputs": [],
      "name": "token",
      "outputs": [
        {
          "internalType": "contract DanteToken",
          "name": "",
          "type": "address"
        }
      ],
      "stateMutability": "view",
      "type": "function",
      "constant": true
    },
    {
      "inputs": [
        {
          "internalType": "address",
          "name": "newOwner",
          "type": "address"
        }
      ],
      "name": "transferOwnership",
      "outputs": [],
      "stateMutability": "nonpayable",
      "type": "function"
    },
    {
      "inputs": [
        {
          "internalType": "address",
          "name": "_address",
          "type": "address"
        }
      ],
      "name": "setTokenContract",
      "outputs": [],
      "stateMutability": "nonpayable",
      "type": "function"
    },
    {
      "inputs": [
        {
          "internalType": "string",
          "name": "_toChain",
          "type": "string"
        },
        {
          "components": [
            {
              "internalType": "address",
              "name": "evmAddress",
              "type": "address"
            },
            {
              "internalType": "string",
              "name": "otherAddress",
              "type": "string"
            },
            {
              "internalType": "uint8",
              "name": "chainType",
              "type": "uint8"
            }
          ],
          "internalType": "struct AddressStruct",
          "name": "_toAddress",
          "type": "tuple"
        },
        {
          "internalType": "uint128",
          "name": "_num",
          "type": "uint128"
        }
      ],
      "name": "transferToken",
      "outputs": [],
      "stateMutability": "nonpayable",
      "type": "function"
    },
    {
      "inputs": [
        {
          "components": [
            {
              "components": [
                {
                  "internalType": "string",
                  "name": "name",
                  "type": "string"
                },
                {
                  "internalType": "enum MsgType",
                  "name": "msgType",
                  "type": "uint8"
                },
                {
                  "internalType": "bytes",
                  "name": "value",
                  "type": "bytes"
                }
              ],
              "internalType": "struct PayloadItem[]",
              "name": "items",
              "type": "tuple[]"
            }
          ],
          "internalType": "struct Payload",
          "name": "_payload",
          "type": "tuple"
        }
      ],
      "name": "receiveToken",
      "outputs": [],
      "stateMutability": "nonpayable",
      "type": "function"
    },
    {
      "inputs": [
        {
          "internalType": "string",
          "name": "_funcName",
          "type": "string"
        },
        {
          "internalType": "string",
          "name": "_toChain",
          "type": "string"
        },
        {
          "internalType": "string",
          "name": "_contractAddress",
          "type": "string"
        },
        {
          "internalType": "string",
          "name": "_contractFuncName",
          "type": "string"
        }
      ],
      "name": "registerDestnContract",
      "outputs": [],
      "stateMutability": "nonpayable",
      "type": "function"
    },
    {
      "inputs": [
        {
          "internalType": "string",
          "name": "_chainName",
          "type": "string"
        },
        {
          "internalType": "string",
          "name": "_sender",
          "type": "string"
        },
        {
          "internalType": "bytes4",
          "name": "_funcName",
          "type": "bytes4"
        }
      ],
      "name": "registerPermittedContract",
      "outputs": [],
      "stateMutability": "nonpayable",
      "type": "function"
    },
    {
      "inputs": [
        {
          "internalType": "string",
          "name": "_chainName",
          "type": "string"
        },
        {
          "internalType": "bytes4",
          "name": "_funcName",
          "type": "bytes4"
        },
        {
          "internalType": "string",
          "name": "_sender",
          "type": "string"
        }
      ],
      "name": "verify",
      "outputs": [
        {
          "internalType": "bool",
          "name": "",
          "type": "bool"
        }
      ],
      "stateMutability": "view",
      "type": "function",
      "constant": true
    }
  ],
  "bytecode": "0x60806040523480156200001157600080fd5b5062000032620000266200003860201b60201c565b6200004060201b60201c565b62000104565b600033905090565b60008060009054906101000a900473ffffffffffffffffffffffffffffffffffffffff169050816000806101000a81548173ffffffffffffffffffffffffffffffffffffffff021916908373ffffffffffffffffffffffffffffffffffffffff1602179055508173ffffffffffffffffffffffffffffffffffffffff168173ffffffffffffffffffffffffffffffffffffffff167f8be0079c531659141344cd1fd0a4f28419497f9722a3daafe3b4186f6b6457e060405160405180910390a35050565b6130a880620001146000396000f3fe608060405234801561001057600080fd5b50600436106100f55760003560e01c80638da5cb5b11610097578063d5d1273811610066578063d5d127381461025e578063dbc90de11461027a578063f2fde38b14610298578063fc0c546a146102b4576100f5565b80638da5cb5b146101d8578063babe5dd6146101f6578063bbcd5bbe14610212578063c5f200ed1461022e576100f5565b8063396f7242116100d3578063396f724214610164578063715018a61461018057806380899bba1461018a57806385644415146101bc576100f5565b80630c5ae335146100fa578063127f0f071461012a57806318d72b5414610148575b600080fd5b610114600480360381019061010f91906114b9565b6102d2565b6040516101219190611569565b60405180910390f35b6101326103c8565b60405161013f919061195a565b60405180910390f35b610162600480360381019061015d91906119a8565b61046b565b005b61017e600480360381019061017991906119f9565b6104b7565b005b61018861068d565b005b6101a4600480360381019061019f9190611b72565b6106a1565b6040516101b393929190611c34565b60405180910390f35b6101d660048036038101906101d19190611c79565b610821565b005b6101e06108b5565b6040516101ed9190611d1d565b60405180910390f35b610210600480360381019061020b9190611d38565b6108de565b005b61022c600480360381019061022791906119a8565b61097e565b005b61024860048036038101906102439190611e21565b6109ca565b6040516102559190611e7d565b60405180910390f35b61027860048036038101906102739190611f06565b610a8d565b005b610282610ff0565b60405161028f9190611ff5565b60405180910390f35b6102b260048036038101906102ad91906119a8565b611016565b005b6102bc61109a565b6040516102c99190612031565b60405180910390f35b600080600487876040516102e792919061207c565b908152602001604051809103902090506000816000877bffffffffffffffffffffffffffffffffffffffffffffffffffffffff19167bffffffffffffffffffffffffffffffffffffffffffffffffffffffff191681526020019081526020016000209050848460405161035b9291906120c5565b60405180910390208160405161037191906121d3565b6040518091039020146103b9576040517f08c379a00000000000000000000000000000000000000000000000000000000081526004016103b090612236565b60405180910390fd5b60019250505095945050505050565b6103d061120a565b600160009054906101000a900473ffffffffffffffffffffffffffffffffffffffff1673ffffffffffffffffffffffffffffffffffffffff16639af7a48c6040518163ffffffff1660e01b8152600401600060405180830381865afa15801561043d573d6000803e3d6000fd5b505050506040513d6000823e3d601f19601f8201168201806040525081019061046691906126fb565b905090565b6104736110c0565b80600160006101000a81548173ffffffffffffffffffffffffffffffffffffffff021916908373ffffffffffffffffffffffffffffffffffffffff16021790555050565b600160009054906101000a900473ffffffffffffffffffffffffffffffffffffffff1673ffffffffffffffffffffffffffffffffffffffff163373ffffffffffffffffffffffffffffffffffffffff1614610547576040517f08c379a000000000000000000000000000000000000000000000000000000000815260040161053e90612790565b60405180910390fd5b600081806000019061055991906127bf565b600081811061056b5761056a612822565b5b905060200281019061057d9190612851565b806040019061058c9190612879565b8101906105999190612995565b905060008280600001906105ad91906127bf565b60018181106105bf576105be612822565b5b90506020028101906105d19190612851565b80604001906105e09190612879565b8101906105ed91906129de565b9050600082600001519050600260009054906101000a900473ffffffffffffffffffffffffffffffffffffffff1673ffffffffffffffffffffffffffffffffffffffff166340c10f1982846040518363ffffffff1660e01b8152600401610655929190612a3c565b600060405180830381600087803b15801561066f57600080fd5b505af1158015610683573d6000803e3d6000fd5b5050505050505050565b6106956110c0565b61069f600061113e565b565b60038280516020810182018051848252602083016020850120818352809550505050505081805160208101820180518482526020830160208501208183528095505050505050600091509150508060000180546106fd9061210d565b80601f01602080910402602001604051908101604052809291908181526020018280546107299061210d565b80156107765780601f1061074b57610100808354040283529160200191610776565b820191906000526020600020905b81548152906001019060200180831161075957829003601f168201915b50505050509080600101805461078b9061210d565b80601f01602080910402602001604051908101604052809291908181526020018280546107b79061210d565b80156108045780601f106107d957610100808354040283529160200191610804565b820191906000526020600020905b8154815290600101906020018083116107e757829003601f168201915b5050505050908060020160009054906101000a900460ff16905083565b6108296110c0565b60006004868660405161083d92919061207c565b908152602001604051809103902090508383826000857bffffffffffffffffffffffffffffffffffffffffffffffffffffffff19167bffffffffffffffffffffffffffffffffffffffffffffffffffffffff1916815260200190815260200160002091906108ac92919061128a565b50505050505050565b60008060009054906101000a900473ffffffffffffffffffffffffffffffffffffffff16905090565b6108e66110c0565b6000600387876040516108fa92919061207c565b908152602001604051809103902090506000818a8a60405161091d92919061207c565b90815260200160405180910390209050858582600001919061094092919061128a565b50838382600101919061095492919061128a565b5060018160020160006101000a81548160ff02191690831515021790555050505050505050505050565b6109866110c0565b80600260006101000a81548173ffffffffffffffffffffffffffffffffffffffff021916908373ffffffffffffffffffffffffffffffffffffffff16021790555050565b600482805160208101820180518482526020830160208501208183528095505050505050602052806000526040600020600091509150508054610a0c9061210d565b80601f0160208091040260200160405190810160405280929190818152602001828054610a389061210d565b8015610a855780601f10610a5a57610100808354040283529160200191610a85565b820191906000526020600020905b815481529060010190602001808311610a6857829003601f168201915b505050505081565b600260009054906101000a900473ffffffffffffffffffffffffffffffffffffffff1673ffffffffffffffffffffffffffffffffffffffff16639dc29fac33836040518363ffffffff1660e01b8152600401610aea929190612a3c565b600060405180830381600087803b158015610b0457600080fd5b505af1158015610b18573d6000803e3d6000fd5b50505050610b24611310565b600267ffffffffffffffff811115610b3f57610b3e611a47565b5b604051908082528060200260200182016040528015610b7857816020015b610b65611323565b815260200190600190039081610b5d5790505b50816000018190525060008160000151600081518110610b9b57610b9a612822565b5b602002602001015190506040518060400160405280600281526020017f746f0000000000000000000000000000000000000000000000000000000000008152508160000181905250601681602001906016811115610bfc57610bfb611662565b5b90816016811115610c1057610c0f611662565b5b8152505083604051602001610c259190612bab565b60405160208183030381529060405281604001819052508160000151600181518110610c5457610c53612822565b5b602002602001015190506040518060400160405280600381526020017f6e756d00000000000000000000000000000000000000000000000000000000008152508160000181905250600581602001906016811115610cb557610cb4611662565b5b90816016811115610cc957610cc8611662565b5b8152505082604051602001610cde9190612bdc565b6040516020818303038152906040528160400181905250600060038787604051610d0992919061207c565b90815260200160405180910390209050600081604051610d2890612c43565b908152602001604051809103902090508060020160009054906101000a900460ff16610d89576040517f08c379a0000000000000000000000000000000000000000000000000000000008152600401610d8090612ca4565b60405180910390fd5b610d91611356565b88888080601f016020809104026020016040519081016040528093929190818152602001838380828437600081840152601f19601f8201169050808301925050505050505081600001819052506040518060400160405280600081526020016040518060200160405280600081525081525081606001819052506040518060600160405280836000018054610e259061210d565b80601f0160208091040260200160405190810160405280929190818152602001828054610e519061210d565b8015610e9e5780601f10610e7357610100808354040283529160200191610e9e565b820191906000526020600020905b815481529060010190602001808311610e8157829003601f168201915b50505050508152602001836001018054610eb79061210d565b80601f0160208091040260200160405190810160405280929190818152602001828054610ee39061210d565b8015610f305780601f10610f0557610100808354040283529160200191610f30565b820191906000526020600020905b815481529060010190602001808311610f1357829003601f168201915b50505050508152602001868152508160400181905250600160009054906101000a900473ffffffffffffffffffffffffffffffffffffffff1673ffffffffffffffffffffffffffffffffffffffff16636e0520a1826040518263ffffffff1660e01b8152600401610fa19190612f25565b6020604051808303816000875af1158015610fc0573d6000803e3d6000fd5b505050506040513d601f19601f82011682018060405250810190610fe49190612f47565b50505050505050505050565b600160009054906101000a900473ffffffffffffffffffffffffffffffffffffffff1681565b61101e6110c0565b600073ffffffffffffffffffffffffffffffffffffffff168173ffffffffffffffffffffffffffffffffffffffff16141561108e576040517f08c379a000000000000000000000000000000000000000000000000000000000815260040161108590612fe6565b60405180910390fd5b6110978161113e565b50565b600260009054906101000a900473ffffffffffffffffffffffffffffffffffffffff1681565b6110c8611202565b73ffffffffffffffffffffffffffffffffffffffff166110e66108b5565b73ffffffffffffffffffffffffffffffffffffffff161461113c576040517f08c379a000000000000000000000000000000000000000000000000000000000815260040161113390613052565b60405180910390fd5b565b60008060009054906101000a900473ffffffffffffffffffffffffffffffffffffffff169050816000806101000a81548173ffffffffffffffffffffffffffffffffffffffff021916908373ffffffffffffffffffffffffffffffffffffffff1602179055508173ffffffffffffffffffffffffffffffffffffffff168173ffffffffffffffffffffffffffffffffffffffff167f8be0079c531659141344cd1fd0a4f28419497f9722a3daafe3b4186f6b6457e060405160405180910390a35050565b600033905090565b6040518061010001604052806000815260200160608152602001606081526020016060815260200160608152602001600073ffffffffffffffffffffffffffffffffffffffff16815260200160007bffffffffffffffffffffffffffffffffffffffffffffffffffffffff1916815260200161128461138a565b81525090565b8280546112969061210d565b90600052602060002090601f0160209004810192826112b857600085556112ff565b82601f106112d157803560ff19168380011785556112ff565b828001600101855582156112ff579182015b828111156112fe5782358255916020019190600101906112e3565b5b50905061130c91906113a4565b5090565b6040518060200160405280606081525090565b6040518060600160405280606081526020016000601681111561134957611348611662565b5b8152602001606081525090565b604051806080016040528060608152602001606081526020016113776113c1565b815260200161138461138a565b81525090565b604051806040016040528060008152602001606081525090565b5b808211156113bd5760008160009055506001016113a5565b5090565b604051806060016040528060608152602001606081526020016113e2611310565b81525090565b6000604051905090565b600080fd5b600080fd5b600080fd5b600080fd5b600080fd5b60008083601f840112611421576114206113fc565b5b8235905067ffffffffffffffff81111561143e5761143d611401565b5b60208301915083600182028301111561145a57611459611406565b5b9250929050565b60007fffffffff0000000000000000000000000000000000000000000000000000000082169050919050565b61149681611461565b81146114a157600080fd5b50565b6000813590506114b38161148d565b92915050565b6000806000806000606086880312156114d5576114d46113f2565b5b600086013567ffffffffffffffff8111156114f3576114f26113f7565b5b6114ff8882890161140b565b95509550506020611512888289016114a4565b935050604086013567ffffffffffffffff811115611533576115326113f7565b5b61153f8882890161140b565b92509250509295509295909350565b60008115159050919050565b6115638161154e565b82525050565b600060208201905061157e600083018461155a565b92915050565b6000819050919050565b61159781611584565b82525050565b600081519050919050565b600082825260208201905092915050565b60005b838110156115d75780820151818401526020810190506115bc565b838111156115e6576000848401525b50505050565b6000601f19601f8301169050919050565b60006116088261159d565b61161281856115a8565b93506116228185602086016115b9565b61162b816115ec565b840191505092915050565b600081519050919050565b600082825260208201905092915050565b6000819050602082019050919050565b7f4e487b7100000000000000000000000000000000000000000000000000000000600052602160045260246000fd5b600981106116a2576116a1611662565b5b50565b60008190506116b382611691565b919050565b60006116c3826116a5565b9050919050565b6116d3816116b8565b82525050565b60006040830160008301516116f160008601826116ca565b506020830151848203602086015261170982826115fd565b9150508091505092915050565b600061172283836116d9565b905092915050565b6000602082019050919050565b600061174282611636565b61174c8185611641565b93508360208202850161175e85611652565b8060005b8581101561179a578484038952815161177b8582611716565b94506117868361172a565b925060208a01995050600181019050611762565b50829750879550505050505092915050565b600073ffffffffffffffffffffffffffffffffffffffff82169050919050565b60006117d7826117ac565b9050919050565b6117e7816117cc565b82525050565b6117f681611461565b82525050565b600081519050919050565b600082825260208201905092915050565b6000611823826117fc565b61182d8185611807565b935061183d8185602086016115b9565b611846816115ec565b840191505092915050565b6000604083016000830151611869600086018261158e565b50602083015184820360208601526118818282611818565b9150508091505092915050565b6000610100830160008301516118a7600086018261158e565b50602083015184820360208601526118bf82826115fd565b915050604083015184820360408601526118d982826115fd565b915050606083015184820360608601526118f382826115fd565b9150506080830151848203608086015261190d8282611737565b91505060a083015161192260a08601826117de565b5060c083015161193560c08601826117ed565b5060e083015184820360e086015261194d8282611851565b9150508091505092915050565b60006020820190508181036000830152611974818461188e565b905092915050565b611985816117cc565b811461199057600080fd5b50565b6000813590506119a28161197c565b92915050565b6000602082840312156119be576119bd6113f2565b5b60006119cc84828501611993565b91505092915050565b600080fd5b6000602082840312156119f0576119ef6119d5565b5b81905092915050565b600060208284031215611a0f57611a0e6113f2565b5b600082013567ffffffffffffffff811115611a2d57611a2c6113f7565b5b611a39848285016119da565b91505092915050565b600080fd5b7f4e487b7100000000000000000000000000000000000000000000000000000000600052604160045260246000fd5b611a7f826115ec565b810181811067ffffffffffffffff82111715611a9e57611a9d611a47565b5b80604052505050565b6000611ab16113e8565b9050611abd8282611a76565b919050565b600067ffffffffffffffff821115611add57611adc611a47565b5b611ae6826115ec565b9050602081019050919050565b82818337600083830152505050565b6000611b15611b1084611ac2565b611aa7565b905082815260208101848484011115611b3157611b30611a42565b5b611b3c848285611af3565b509392505050565b600082601f830112611b5957611b586113fc565b5b8135611b69848260208601611b02565b91505092915050565b60008060408385031215611b8957611b886113f2565b5b600083013567ffffffffffffffff811115611ba757611ba66113f7565b5b611bb385828601611b44565b925050602083013567ffffffffffffffff811115611bd457611bd36113f7565b5b611be085828601611b44565b9150509250929050565b600082825260208201905092915050565b6000611c068261159d565b611c108185611bea565b9350611c208185602086016115b9565b611c29816115ec565b840191505092915050565b60006060820190508181036000830152611c4e8186611bfb565b90508181036020830152611c628185611bfb565b9050611c71604083018461155a565b949350505050565b600080600080600060608688031215611c9557611c946113f2565b5b600086013567ffffffffffffffff811115611cb357611cb26113f7565b5b611cbf8882890161140b565b9550955050602086013567ffffffffffffffff811115611ce257611ce16113f7565b5b611cee8882890161140b565b93509350506040611d01888289016114a4565b9150509295509295909350565b611d17816117cc565b82525050565b6000602082019050611d326000830184611d0e565b92915050565b6000806000806000806000806080898b031215611d5857611d576113f2565b5b600089013567ffffffffffffffff811115611d7657611d756113f7565b5b611d828b828c0161140b565b9850985050602089013567ffffffffffffffff811115611da557611da46113f7565b5b611db18b828c0161140b565b9650965050604089013567ffffffffffffffff811115611dd457611dd36113f7565b5b611de08b828c0161140b565b9450945050606089013567ffffffffffffffff811115611e0357611e026113f7565b5b611e0f8b828c0161140b565b92509250509295985092959890939650565b60008060408385031215611e3857611e376113f2565b5b600083013567ffffffffffffffff811115611e5657611e556113f7565b5b611e6285828601611b44565b9250506020611e73858286016114a4565b9150509250929050565b60006020820190508181036000830152611e978184611bfb565b905092915050565b600060608284031215611eb557611eb46119d5565b5b81905092915050565b60006fffffffffffffffffffffffffffffffff82169050919050565b611ee381611ebe565b8114611eee57600080fd5b50565b600081359050611f0081611eda565b92915050565b60008060008060608587031215611f2057611f1f6113f2565b5b600085013567ffffffffffffffff811115611f3e57611f3d6113f7565b5b611f4a8782880161140b565b9450945050602085013567ffffffffffffffff811115611f6d57611f6c6113f7565b5b611f7987828801611e9f565b9250506040611f8a87828801611ef1565b91505092959194509250565b6000819050919050565b6000611fbb611fb6611fb1846117ac565b611f96565b6117ac565b9050919050565b6000611fcd82611fa0565b9050919050565b6000611fdf82611fc2565b9050919050565b611fef81611fd4565b82525050565b600060208201905061200a6000830184611fe6565b92915050565b600061201b82611fc2565b9050919050565b61202b81612010565b82525050565b60006020820190506120466000830184612022565b92915050565b600081905092915050565b6000612063838561204c565b9350612070838584611af3565b82840190509392505050565b6000612089828486612057565b91508190509392505050565b600081905092915050565b60006120ac8385612095565b93506120b9838584611af3565b82840190509392505050565b60006120d28284866120a0565b91508190509392505050565b7f4e487b7100000000000000000000000000000000000000000000000000000000600052602260045260246000fd5b6000600282049050600182168061212557607f821691505b60208210811415612139576121386120de565b5b50919050565b60008190508160005260206000209050919050565b600081546121618161210d565b61216b8186612095565b945060018216600081146121865760018114612197576121ca565b60ff198316865281860193506121ca565b6121a08561213f565b60005b838110156121c2578154818901526001820191506020810190506121a3565b838801955050505b50505092915050565b60006121df8284612154565b915081905092915050565b7f53656e64657220646f6573206e6f74206d617463680000000000000000000000600082015250565b6000612220601583611bea565b915061222b826121ea565b602082019050919050565b6000602082019050818103600083015261224f81612213565b9050919050565b600080fd5b600080fd5b61226981611584565b811461227457600080fd5b50565b60008151905061228681612260565b92915050565b600061229f61229a84611ac2565b611aa7565b9050828152602081018484840111156122bb576122ba611a42565b5b6122c68482856115b9565b509392505050565b600082601f8301126122e3576122e26113fc565b5b81516122f384826020860161228c565b91505092915050565b600067ffffffffffffffff82111561231757612316611a47565b5b602082029050602081019050919050565b6009811061233557600080fd5b50565b60008151905061234781612328565b92915050565b60006040828403121561236357612362612256565b5b61236d6040611aa7565b9050600061237d84828501612338565b600083015250602082015167ffffffffffffffff8111156123a1576123a061225b565b5b6123ad848285016122ce565b60208301525092915050565b60006123cc6123c7846122fc565b611aa7565b905080838252602082019050602084028301858111156123ef576123ee611406565b5b835b8181101561243657805167ffffffffffffffff811115612414576124136113fc565b5b808601612421898261234d565b855260208501945050506020810190506123f1565b5050509392505050565b600082601f830112612455576124546113fc565b5b81516124658482602086016123b9565b91505092915050565b60008151905061247d8161197c565b92915050565b6000815190506124928161148d565b92915050565b600067ffffffffffffffff8211156124b3576124b2611a47565b5b6124bc826115ec565b9050602081019050919050565b60006124dc6124d784612498565b611aa7565b9050828152602081018484840111156124f8576124f7611a42565b5b6125038482856115b9565b509392505050565b600082601f8301126125205761251f6113fc565b5b81516125308482602086016124c9565b91505092915050565b60006040828403121561254f5761254e612256565b5b6125596040611aa7565b9050600061256984828501612277565b600083015250602082015167ffffffffffffffff81111561258d5761258c61225b565b5b6125998482850161250b565b60208301525092915050565b600061010082840312156125bc576125bb612256565b5b6125c7610100611aa7565b905060006125d784828501612277565b600083015250602082015167ffffffffffffffff8111156125fb576125fa61225b565b5b612607848285016122ce565b602083015250604082015167ffffffffffffffff81111561262b5761262a61225b565b5b612637848285016122ce565b604083015250606082015167ffffffffffffffff81111561265b5761265a61225b565b5b612667848285016122ce565b606083015250608082015167ffffffffffffffff81111561268b5761268a61225b565b5b61269784828501612440565b60808301525060a06126ab8482850161246e565b60a08301525060c06126bf84828501612483565b60c08301525060e082015167ffffffffffffffff8111156126e3576126e261225b565b5b6126ef84828501612539565b60e08301525092915050565b600060208284031215612711576127106113f2565b5b600082015167ffffffffffffffff81111561272f5761272e6113f7565b5b61273b848285016125a5565b91505092915050565b7f4c6f636b65723a2063616c6c6572206973206e6f742043726f7373436861696e600082015250565b600061277a602083611bea565b915061278582612744565b602082019050919050565b600060208201905081810360008301526127a98161276d565b9050919050565b600080fd5b600080fd5b600080fd5b600080833560016020038436030381126127dc576127db6127b0565b5b80840192508235915067ffffffffffffffff8211156127fe576127fd6127b5565b5b60208301925060208202360383131561281a576128196127ba565b5b509250929050565b7f4e487b7100000000000000000000000000000000000000000000000000000000600052603260045260246000fd5b60008235600160600383360303811261286d5761286c6127b0565b5b80830191505092915050565b60008083356001602003843603038112612896576128956127b0565b5b80840192508235915067ffffffffffffffff8211156128b8576128b76127b5565b5b6020830192506001820236038313156128d4576128d36127ba565b5b509250929050565b600060ff82169050919050565b6128f2816128dc565b81146128fd57600080fd5b50565b60008135905061290f816128e9565b92915050565b60006060828403121561292b5761292a612256565b5b6129356060611aa7565b9050600061294584828501611993565b600083015250602082013567ffffffffffffffff8111156129695761296861225b565b5b61297584828501611b44565b602083015250604061298984828501612900565b60408301525092915050565b6000602082840312156129ab576129aa6113f2565b5b600082013567ffffffffffffffff8111156129c9576129c86113f7565b5b6129d584828501612915565b91505092915050565b6000602082840312156129f4576129f36113f2565b5b6000612a0284828501611ef1565b91505092915050565b6000612a26612a21612a1c84611ebe565b611f96565b611584565b9050919050565b612a3681612a0b565b82525050565b6000604082019050612a516000830185611d0e565b612a5e6020830184612a2d565b9392505050565b6000612a746020840184611993565b905092915050565b600080fd5b600080fd5b600080fd5b60008083356001602003843603038112612aa857612aa7612a86565b5b83810192508235915060208301925067ffffffffffffffff821115612ad057612acf612a7c565b5b600182023603841315612ae657612ae5612a81565b5b509250929050565b6000612afa83856115a8565b9350612b07838584611af3565b612b10836115ec565b840190509392505050565b6000612b2a6020840184612900565b905092915050565b612b3b816128dc565b82525050565b600060608301612b546000840184612a65565b612b6160008601826117de565b50612b6f6020840184612a8b565b8583036020870152612b82838284612aee565b92505050612b936040840184612b1b565b612ba06040860182612b32565b508091505092915050565b60006020820190508181036000830152612bc58184612b41565b905092915050565b612bd681611ebe565b82525050565b6000602082019050612bf16000830184612bcd565b92915050565b7f72656365697665546f6b656e0000000000000000000000000000000000000000600082015250565b6000612c2d600c8361204c565b9150612c3882612bf7565b600c82019050919050565b6000612c4e82612c20565b9150819050919050565b7f616374696f6e206e6f7420726567697374657265640000000000000000000000600082015250565b6000612c8e601583611bea565b9150612c9982612c58565b602082019050919050565b60006020820190508181036000830152612cbd81612c81565b9050919050565b600081519050919050565b600082825260208201905092915050565b6000819050602082019050919050565b60178110612d0157612d00611662565b5b50565b6000819050612d1282612cf0565b919050565b6000612d2282612d04565b9050919050565b612d3281612d17565b82525050565b60006060830160008301518482036000860152612d5582826115fd565b9150506020830151612d6a6020860182612d29565b5060408301518482036040860152612d828282611818565b9150508091505092915050565b6000612d9b8383612d38565b905092915050565b6000602082019050919050565b6000612dbb82612cc4565b612dc58185612ccf565b935083602082028501612dd785612ce0565b8060005b85811015612e135784840389528151612df48582612d8f565b9450612dff83612da3565b925060208a01995050600181019050612ddb565b50829750879550505050505092915050565b60006020830160008301518482036000860152612e428282612db0565b9150508091505092915050565b60006060830160008301518482036000860152612e6c82826115fd565b91505060208301518482036020860152612e8682826115fd565b91505060408301518482036040860152612ea08282612e25565b9150508091505092915050565b60006080830160008301518482036000860152612eca82826115fd565b91505060208301518482036020860152612ee48282611737565b91505060408301518482036040860152612efe8282612e4f565b91505060608301518482036060860152612f188282611851565b9150508091505092915050565b60006020820190508181036000830152612f3f8184612ead565b905092915050565b600060208284031215612f5d57612f5c6113f2565b5b6000612f6b84828501612277565b91505092915050565b7f4f776e61626c653a206e6577206f776e657220697320746865207a65726f206160008201527f6464726573730000000000000000000000000000000000000000000000000000602082015250565b6000612fd0602683611bea565b9150612fdb82612f74565b604082019050919050565b60006020820190508181036000830152612fff81612fc3565b9050919050565b7f4f776e61626c653a2063616c6c6572206973206e6f7420746865206f776e6572600082015250565b600061303c602083611bea565b915061304782613006565b602082019050919050565b6000602082019050818103600083015261306b8161302f565b905091905056fea26469706673582212209d4be6a09f2a28202f4a865a6a09fc839069b0705fe3ee4f7b428fb2f3fa13a364736f6c634300080c0033",
  "immutableReferences": {},
  "source": "// SPDX-License-Identifier: MIT\npragma solidity >=0.8.0 <0.9.0;\n\nimport \"@openzeppelin/contracts/access/Ownable.sol\";\nimport \"@hthuang/contracts/ContractBase.sol\";\nimport \"./DanteToken.sol\";\n\ncontract Locker is ContractBase {\n    // Destination contract info\n    struct DestnContract {\n        string contractAddress; // destination contract address\n        string funcName; // destination contract action name\n        bool used;\n    }\n\n    // Dante token address\n    DanteToken public token;\n\n    // Cross-chain destination contract map\n    mapping(string => mapping(string => DestnContract)) public destnContractMap;\n\n    // Cross-chain permitted contract map\n    mapping(string => mapping(bytes4 => string)) public permittedContractMap;\n\n    function setTokenContract(address _address) external onlyOwner {\n        token = DanteToken(_address);\n    }\n\n    /**\n     * Map tokens to another chain\n     * @param _toChain - to chain name\n     * @param _num - number of tokens that will be sent to chain `_toChain`\n     */\n    function transferToken(\n        string calldata _toChain,\n        AddressStruct calldata _toAddress,\n        uint128 _num\n    ) external {\n        // Burn tokens\n        token.burn(msg.sender, _num);\n\n        // Construct payload\n        Payload memory data;\n        data.items = new PayloadItem[](2);\n        PayloadItem memory item = data.items[0];\n        item.name = \"to\";\n        item.msgType = MsgType.EvmAddress;\n        item.value = abi.encode(_toAddress);\n        item = data.items[1];\n        item.name = \"num\";\n        item.msgType = MsgType.EvmU128;\n        item.value = abi.encode(_num);\n\n        mapping(string => DestnContract) storage map = destnContractMap[_toChain];\n        DestnContract storage destnContract = map[\"receiveToken\"];\n        require(destnContract.used, \"action not registered\");\n\n        // Construct message\n        ISentMessage memory message;\n        message.toChain = _toChain;\n        message.session = Session(0, \"\");\n        message.content = Content(destnContract.contractAddress, destnContract.funcName, data);\n\n        crossChainContract.sendMessage(message);\n    }\n\n    /**\n     * Receive greeting info from other chains\n     * @param _payload - payload which contains greeting message\n     */\n    function receiveToken(Payload calldata _payload) public {\n        require(\n            msg.sender == address(crossChainContract),\n            \"Locker: caller is not CrossChain\"\n        );\n\n        // Parse payload\n        (AddressStruct memory _addr) = abi.decode(_payload.items[0].value, (AddressStruct));\n        (uint128 _num) = abi.decode(_payload.items[1].value, (uint128));\n        address _to = _addr.evmAddress;\n        \n        // Mint tokens\n        token.mint(_to, _num);\n    }\n\n    ///////////////////////////////////////////////\n    /////    Send messages to other chains   //////\n    ///////////////////////////////////////////////\n\n    /**\n     * Register destination contract info\n     * @param _funcName - function name to be called\n     * @param _toChain - destination chain name\n     * @param _contractAddress - destination contract address\n     * @param _contractFuncName - contract function name\n     */\n    function registerDestnContract(\n        string calldata _funcName,\n        string calldata _toChain,\n        string calldata _contractAddress,\n        string calldata _contractFuncName\n    ) external onlyOwner {\n        mapping(string => DestnContract) storage map = destnContractMap[_toChain];\n        DestnContract storage destnContract = map[_funcName];\n        destnContract.contractAddress = _contractAddress;\n        destnContract.funcName = _contractFuncName;\n        destnContract.used = true;\n    }\n\n    ///////////////////////////////////////////////\n    ///    Receive messages from other chains   ///\n    ///////////////////////////////////////////////\n\n    /**\n     * Authorize contracts of other chains to call the functions of this contract\n     * @param _chainName - from chain name\n     * @param _sender - sender of cross chain message\n     * @param _funcName - action name which allowed to be invoked\n     */\n    function registerPermittedContract(\n        string calldata _chainName,\n        string calldata _sender,\n        bytes4 _funcName\n    ) external onlyOwner {\n        mapping(bytes4 => string) storage map = permittedContractMap[\n            _chainName\n        ];\n        map[_funcName] = _sender;\n    }\n\n    /**\n     * This verify method will be invoked by the CrossChain contract automatically, ensure that only registered contract(registerSourceContract) calls are allowed\n     * @param _chainName - chain name of cross chain message\n     * @param _funcName - contract action name of cross chain message\n     * @param _sender - cross chain message sender\n     */\n    //  Will be deprecated soon\n    function verify(\n        string calldata _chainName,\n        bytes4 _funcName,\n        string calldata _sender\n    ) public view virtual returns (bool) {\n        mapping(bytes4 => string) storage map = permittedContractMap[\n            _chainName\n        ];\n        string storage sender = map[_funcName];\n        require(\n            keccak256(bytes(sender)) == keccak256(bytes(_sender)),\n            \"Sender does not match\"\n        );\n        return true;\n    }\n}\n",
  "sourcePath": "/home/george/program/dante/near-platon-bridge/platon/contracts/Locker.sol",
  "compiler": {
    "name": "solc",
    "version": "0.8.12+commit.f00d7308.Emscripten.clang"
  },
  "schemaVersion": "3.4.6",
  "updatedAt": "2022-07-18T08:09:57.585Z",
  "networkType": "ethereum",
  "devdoc": {
    "kind": "dev",
    "methods": {
      "owner()": {
        "details": "Returns the address of the current owner."
      },
      "receiveToken(((string,uint8,bytes)[]))": {
        "params": {
          "_payload": "- payload which contains greeting message"
        }
      },
      "registerDestnContract(string,string,string,string)": {
        "params": {
          "_contractAddress": "- destination contract address",
          "_contractFuncName": "- contract function name",
          "_funcName": "- function name to be called",
          "_toChain": "- destination chain name"
        }
      },
      "registerPermittedContract(string,string,bytes4)": {
        "params": {
          "_chainName": "- from chain name",
          "_funcName": "- action name which allowed to be invoked",
          "_sender": "- sender of cross chain message"
        }
      },
      "renounceOwnership()": {
        "details": "Leaves the contract without owner. It will not be possible to call `onlyOwner` functions anymore. Can only be called by the current owner. NOTE: Renouncing ownership will leave the contract without an owner, thereby removing any functionality that is only available to the owner."
      },
      "setCrossChainContract(address)": {
        "params": {
          "_address": "- cross chain contract address"
        }
      },
      "transferOwnership(address)": {
        "details": "Transfers ownership of the contract to a new account (`newOwner`). Can only be called by the current owner."
      },
      "transferToken(string,(address,string,uint8),uint128)": {
        "params": {
          "_num": "- number of tokens that will be sent to chain `_toChain`",
          "_toChain": "- to chain name"
        }
      },
      "verify(string,bytes4,string)": {
        "params": {
          "_chainName": "- chain name of cross chain message",
          "_funcName": "- contract action name of cross chain message",
          "_sender": "- cross chain message sender"
        }
      }
    },
    "version": 1
  },
  "userdoc": {
    "kind": "user",
    "methods": {
      "receiveToken(((string,uint8,bytes)[]))": {
        "notice": "Receive greeting info from other chains"
      },
      "registerDestnContract(string,string,string,string)": {
        "notice": "Register destination contract info"
      },
      "registerPermittedContract(string,string,bytes4)": {
        "notice": "Authorize contracts of other chains to call the functions of this contract"
      },
      "setCrossChainContract(address)": {
        "notice": "Set cross chain contract"
      },
      "transferToken(string,(address,string,uint8),uint128)": {
        "notice": "Map tokens to another chain"
      },
      "verify(string,bytes4,string)": {
        "notice": "This verify method will be invoked by the CrossChain contract automatically, ensure that only registered contract(registerSourceContract) calls are allowed"
      }
    },
    "version": 1
  }
}