{
  "contractName": "Locker",
  "abi": [
    {
      "anonymous": false,
      "inputs": [
        {
          "indexed": true,
          "internalType": "address",
          "name": "previousOwner",
          "type": "address"
        },
        {
          "indexed": true,
          "internalType": "address",
          "name": "newOwner",
          "type": "address"
        }
      ],
      "name": "OwnershipTransferred",
      "type": "event"
    },
    {
      "inputs": [],
      "name": "crossChainContract",
      "outputs": [
        {
          "internalType": "contract ICrossChain",
          "name": "",
          "type": "address"
        }
      ],
      "stateMutability": "view",
      "type": "function"
    },
    {
      "inputs": [
        {
          "internalType": "string",
          "name": "",
          "type": "string"
        },
        {
          "internalType": "string",
          "name": "",
          "type": "string"
        }
      ],
      "name": "destnContractMap",
      "outputs": [
        {
          "internalType": "string",
          "name": "contractAddress",
          "type": "string"
        },
        {
          "internalType": "string",
          "name": "funcName",
          "type": "string"
        },
        {
          "internalType": "bool",
          "name": "used",
          "type": "bool"
        }
      ],
      "stateMutability": "view",
      "type": "function"
    },
    {
      "inputs": [],
      "name": "getContext",
      "outputs": [
        {
          "components": [
            {
              "internalType": "uint256",
              "name": "id",
              "type": "uint256"
            },
            {
              "internalType": "string",
              "name": "fromChain",
              "type": "string"
            },
            {
              "internalType": "string",
              "name": "sender",
              "type": "string"
            },
            {
              "internalType": "string",
              "name": "signer",
              "type": "string"
            },
            {
              "components": [
                {
                  "internalType": "enum SQoSType",
                  "name": "t",
                  "type": "uint8"
                },
                {
                  "internalType": "string",
                  "name": "v",
                  "type": "string"
                }
              ],
              "internalType": "struct SQoS[]",
              "name": "sqos",
              "type": "tuple[]"
            },
            {
              "internalType": "address",
              "name": "contractAddress",
              "type": "address"
            },
            {
              "internalType": "bytes4",
              "name": "action",
              "type": "bytes4"
            },
            {
              "components": [
                {
                  "internalType": "uint256",
                  "name": "id",
                  "type": "uint256"
                },
                {
                  "internalType": "bytes",
                  "name": "callback",
                  "type": "bytes"
                }
              ],
              "internalType": "struct Session",
              "name": "session",
              "type": "tuple"
            }
          ],
          "internalType": "struct SimplifiedMessage",
          "name": "",
          "type": "tuple"
        }
      ],
      "stateMutability": "view",
      "type": "function"
    },
    {
      "inputs": [],
      "name": "owner",
      "outputs": [
        {
          "internalType": "address",
          "name": "",
          "type": "address"
        }
      ],
      "stateMutability": "view",
      "type": "function"
    },
    {
      "inputs": [
        {
          "internalType": "string",
          "name": "",
          "type": "string"
        },
        {
          "internalType": "bytes4",
          "name": "",
          "type": "bytes4"
        }
      ],
      "name": "permittedContractMap",
      "outputs": [
        {
          "internalType": "string",
          "name": "",
          "type": "string"
        }
      ],
      "stateMutability": "view",
      "type": "function"
    },
    {
      "inputs": [],
      "name": "renounceOwnership",
      "outputs": [],
      "stateMutability": "nonpayable",
      "type": "function"
    },
    {
      "inputs": [
        {
          "internalType": "address",
          "name": "_address",
          "type": "address"
        }
      ],
      "name": "setCrossChainContract",
      "outputs": [],
      "stateMutability": "nonpayable",
      "type": "function"
    },
    {
      "inputs": [],
      "name": "token",
      "outputs": [
        {
          "internalType": "contract DanteToken",
          "name": "",
          "type": "address"
        }
      ],
      "stateMutability": "view",
      "type": "function"
    },
    {
      "inputs": [
        {
          "internalType": "address",
          "name": "newOwner",
          "type": "address"
        }
      ],
      "name": "transferOwnership",
      "outputs": [],
      "stateMutability": "nonpayable",
      "type": "function"
    },
    {
      "inputs": [
        {
          "internalType": "address",
          "name": "_address",
          "type": "address"
        }
      ],
      "name": "setTokenContract",
      "outputs": [],
      "stateMutability": "nonpayable",
      "type": "function"
    },
    {
      "inputs": [
        {
          "internalType": "string",
          "name": "_toChain",
          "type": "string"
        },
        {
          "internalType": "string",
          "name": "_toAddress",
          "type": "string"
        },
        {
          "internalType": "uint128",
          "name": "_num",
          "type": "uint128"
        }
      ],
      "name": "transferToken",
      "outputs": [],
      "stateMutability": "nonpayable",
      "type": "function"
    },
    {
      "inputs": [
        {
          "components": [
            {
              "components": [
                {
                  "internalType": "string",
                  "name": "name",
                  "type": "string"
                },
                {
                  "internalType": "enum MsgType",
                  "name": "msgType",
                  "type": "uint8"
                },
                {
                  "internalType": "bytes",
                  "name": "value",
                  "type": "bytes"
                }
              ],
              "internalType": "struct PayloadItem[]",
              "name": "items",
              "type": "tuple[]"
            }
          ],
          "internalType": "struct Payload",
          "name": "_payload",
          "type": "tuple"
        }
      ],
      "name": "receiveToken",
      "outputs": [],
      "stateMutability": "nonpayable",
      "type": "function"
    },
    {
      "inputs": [
        {
          "internalType": "string",
          "name": "_funcName",
          "type": "string"
        },
        {
          "internalType": "string",
          "name": "_toChain",
          "type": "string"
        },
        {
          "internalType": "string",
          "name": "_contractAddress",
          "type": "string"
        },
        {
          "internalType": "string",
          "name": "_contractFuncName",
          "type": "string"
        }
      ],
      "name": "registerDestnContract",
      "outputs": [],
      "stateMutability": "nonpayable",
      "type": "function"
    },
    {
      "inputs": [
        {
          "internalType": "string",
          "name": "_chainName",
          "type": "string"
        },
        {
          "internalType": "string",
          "name": "_sender",
          "type": "string"
        },
        {
          "internalType": "bytes4",
          "name": "_funcName",
          "type": "bytes4"
        }
      ],
      "name": "registerPermittedContract",
      "outputs": [],
      "stateMutability": "nonpayable",
      "type": "function"
    },
    {
      "inputs": [
        {
          "internalType": "string",
          "name": "_chainName",
          "type": "string"
        },
        {
          "internalType": "bytes4",
          "name": "_funcName",
          "type": "bytes4"
        },
        {
          "internalType": "string",
          "name": "_sender",
          "type": "string"
        }
      ],
      "name": "verify",
      "outputs": [
        {
          "internalType": "bool",
          "name": "",
          "type": "bool"
        }
      ],
      "stateMutability": "view",
      "type": "function"
    }
  ],
  "bytecode": "0x60806040523480156200001157600080fd5b5062000032620000266200003860201b60201c565b6200004060201b60201c565b62000104565b600033905090565b60008060009054906101000a900473ffffffffffffffffffffffffffffffffffffffff169050816000806101000a81548173ffffffffffffffffffffffffffffffffffffffff021916908373ffffffffffffffffffffffffffffffffffffffff1602179055508173ffffffffffffffffffffffffffffffffffffffff168173ffffffffffffffffffffffffffffffffffffffff167f8be0079c531659141344cd1fd0a4f28419497f9722a3daafe3b4186f6b6457e060405160405180910390a35050565b6130fb80620001146000396000f3fe608060405234801561001057600080fd5b50600436106100f55760003560e01c80638564441511610097578063c5f200ed11610066578063c5f200ed1461024a578063dbc90de11461027a578063f2fde38b14610298578063fc0c546a146102b4576100f5565b806385644415146101d85780638da5cb5b146101f4578063babe5dd614610212578063bbcd5bbe1461022e576100f5565b8063396f7242116100d3578063396f7242146101645780634259cb1714610180578063715018a61461019c57806380899bba146101a6576100f5565b80630c5ae335146100fa578063127f0f071461012a57806318d72b5414610148575b600080fd5b610114600480360381019061010f9190611538565b6102d2565b60405161012191906115e8565b60405180910390f35b6101326103c8565b60405161013f91906119d9565b60405180910390f35b610162600480360381019061015d9190611a27565b61046b565b005b61017e60048036038101906101799190611a78565b6104b7565b005b61019a60048036038101906101959190611b09565b610691565b005b6101a4610bf7565b005b6101c060048036038101906101bb9190611cce565b610c0b565b6040516101cf93929190611d90565b60405180910390f35b6101f260048036038101906101ed9190611dd5565b610d8b565b005b6101fc610e1f565b6040516102099190611e79565b60405180910390f35b61022c60048036038101906102279190611e94565b610e48565b005b61024860048036038101906102439190611a27565b610ee8565b005b610264600480360381019061025f9190611f7d565b610f34565b6040516102719190611fd9565b60405180910390f35b610282610ff7565b60405161028f919061205a565b60405180910390f35b6102b260048036038101906102ad9190611a27565b61101d565b005b6102bc6110a1565b6040516102c99190612096565b60405180910390f35b600080600487876040516102e79291906120e1565b908152602001604051809103902090506000816000877bffffffffffffffffffffffffffffffffffffffffffffffffffffffff19167bffffffffffffffffffffffffffffffffffffffffffffffffffffffff191681526020019081526020016000209050848460405161035b92919061212a565b6040518091039020816040516103719190612238565b6040518091039020146103b9576040517f08c379a00000000000000000000000000000000000000000000000000000000081526004016103b09061229b565b60405180910390fd5b60019250505095945050505050565b6103d0611289565b600160009054906101000a900473ffffffffffffffffffffffffffffffffffffffff1673ffffffffffffffffffffffffffffffffffffffff16639af7a48c6040518163ffffffff1660e01b8152600401600060405180830381865afa15801561043d573d6000803e3d6000fd5b505050506040513d6000823e3d601f19601f820116820180604052508101906104669190612760565b905090565b6104736110c7565b80600160006101000a81548173ffffffffffffffffffffffffffffffffffffffff021916908373ffffffffffffffffffffffffffffffffffffffff16021790555050565b600160009054906101000a900473ffffffffffffffffffffffffffffffffffffffff1673ffffffffffffffffffffffffffffffffffffffff163373ffffffffffffffffffffffffffffffffffffffff1614610547576040517f08c379a000000000000000000000000000000000000000000000000000000000815260040161053e906127f5565b60405180910390fd5b60008180600001906105599190612824565b600081811061056b5761056a612887565b5b905060200281019061057d91906128b6565b806040019061058c91906128de565b8101906105999190612a3d565b905060008280600001906105ad9190612824565b60018181106105bf576105be612887565b5b90506020028101906105d191906128b6565b80604001906105e091906128de565b8101906105ed9190612a86565b905060006105fa83611145565b9050600260009054906101000a900473ffffffffffffffffffffffffffffffffffffffff1673ffffffffffffffffffffffffffffffffffffffff166340c10f1982846040518363ffffffff1660e01b8152600401610659929190612ae4565b600060405180830381600087803b15801561067357600080fd5b505af1158015610687573d6000803e3d6000fd5b5050505050505050565b600260009054906101000a900473ffffffffffffffffffffffffffffffffffffffff1673ffffffffffffffffffffffffffffffffffffffff16639dc29fac33836040518363ffffffff1660e01b81526004016106ee929190612ae4565b600060405180830381600087803b15801561070857600080fd5b505af115801561071c573d6000803e3d6000fd5b50505050610728611309565b600267ffffffffffffffff81111561074357610742611ba3565b5b60405190808252806020026020018201604052801561077c57816020015b61076961131c565b8152602001906001900390816107615790505b5081600001819052506000816000015160008151811061079f5761079e612887565b5b602002602001015190506040518060400160405280600281526020017f746f0000000000000000000000000000000000000000000000000000000000008152508160000181905250600081602001906015811115610800576107ff6116e1565b5b90816015811115610814576108136116e1565b5b81525050848460405160200161082b929190612b3a565b6040516020818303038152906040528160400181905250816000015160018151811061085a57610859612887565b5b602002602001015190506040518060400160405280600381526020017f6e756d000000000000000000000000000000000000000000000000000000000081525081600001819052506005816020019060158111156108bb576108ba6116e1565b5b908160158111156108cf576108ce6116e1565b5b81525050826040516020016108e49190612b6d565b604051602081830303815290604052816040018190525060006003888860405161090f9291906120e1565b9081526020016040518091039020905060008160405161092e90612bd4565b908152602001604051809103902090508060020160009054906101000a900460ff1661098f576040517f08c379a000000000000000000000000000000000000000000000000000000000815260040161098690612c35565b60405180910390fd5b61099761134f565b89898080601f016020809104026020016040519081016040528093929190818152602001838380828437600081840152601f19601f8201169050808301925050505050505081600001819052506040518060400160405280600081526020016040518060200160405280600081525081525081606001819052506040518060600160405280836000018054610a2b90612172565b80601f0160208091040260200160405190810160405280929190818152602001828054610a5790612172565b8015610aa45780601f10610a7957610100808354040283529160200191610aa4565b820191906000526020600020905b815481529060010190602001808311610a8757829003601f168201915b50505050508152602001836001018054610abd90612172565b80601f0160208091040260200160405190810160405280929190818152602001828054610ae990612172565b8015610b365780601f10610b0b57610100808354040283529160200191610b36565b820191906000526020600020905b815481529060010190602001808311610b1957829003601f168201915b50505050508152602001868152508160400181905250600160009054906101000a900473ffffffffffffffffffffffffffffffffffffffff1673ffffffffffffffffffffffffffffffffffffffff16636e0520a1826040518263ffffffff1660e01b8152600401610ba79190612eb6565b6020604051808303816000875af1158015610bc6573d6000803e3d6000fd5b505050506040513d601f19601f82011682018060405250810190610bea9190612ed8565b5050505050505050505050565b610bff6110c7565b610c0960006111bd565b565b6003828051602081018201805184825260208301602085012081835280955050505050508180516020810182018051848252602083016020850120818352809550505050505060009150915050806000018054610c6790612172565b80601f0160208091040260200160405190810160405280929190818152602001828054610c9390612172565b8015610ce05780601f10610cb557610100808354040283529160200191610ce0565b820191906000526020600020905b815481529060010190602001808311610cc357829003601f168201915b505050505090806001018054610cf590612172565b80601f0160208091040260200160405190810160405280929190818152602001828054610d2190612172565b8015610d6e5780601f10610d4357610100808354040283529160200191610d6e565b820191906000526020600020905b815481529060010190602001808311610d5157829003601f168201915b5050505050908060020160009054906101000a900460ff16905083565b610d936110c7565b600060048686604051610da79291906120e1565b908152602001604051809103902090508383826000857bffffffffffffffffffffffffffffffffffffffffffffffffffffffff19167bffffffffffffffffffffffffffffffffffffffffffffffffffffffff191681526020019081526020016000209190610e16929190611383565b50505050505050565b60008060009054906101000a900473ffffffffffffffffffffffffffffffffffffffff16905090565b610e506110c7565b600060038787604051610e649291906120e1565b908152602001604051809103902090506000818a8a604051610e879291906120e1565b908152602001604051809103902090508585826000019190610eaa929190611383565b508383826001019190610ebe929190611383565b5060018160020160006101000a81548160ff02191690831515021790555050505050505050505050565b610ef06110c7565b80600260006101000a81548173ffffffffffffffffffffffffffffffffffffffff021916908373ffffffffffffffffffffffffffffffffffffffff16021790555050565b600482805160208101820180518482526020830160208501208183528095505050505050602052806000526040600020600091509150508054610f7690612172565b80601f0160208091040260200160405190810160405280929190818152602001828054610fa290612172565b8015610fef5780601f10610fc457610100808354040283529160200191610fef565b820191906000526020600020905b815481529060010190602001808311610fd257829003601f168201915b505050505081565b600160009054906101000a900473ffffffffffffffffffffffffffffffffffffffff1681565b6110256110c7565b600073ffffffffffffffffffffffffffffffffffffffff168173ffffffffffffffffffffffffffffffffffffffff161415611095576040517f08c379a000000000000000000000000000000000000000000000000000000000815260040161108c90612f77565b60405180910390fd5b61109e816111bd565b50565b600260009054906101000a900473ffffffffffffffffffffffffffffffffffffffff1681565b6110cf611281565b73ffffffffffffffffffffffffffffffffffffffff166110ed610e1f565b73ffffffffffffffffffffffffffffffffffffffff1614611143576040517f08c379a000000000000000000000000000000000000000000000000000000000815260040161113a90612fe3565b60405180910390fd5b565b6000806000905060005b83518110156111b35760088273ffffffffffffffffffffffffffffffffffffffff16901b915083818151811061118857611187612887565b5b602002602001015160ff168261119e9190613032565b915080806111ab9061307c565b91505061114f565b5080915050919050565b60008060009054906101000a900473ffffffffffffffffffffffffffffffffffffffff169050816000806101000a81548173ffffffffffffffffffffffffffffffffffffffff021916908373ffffffffffffffffffffffffffffffffffffffff1602179055508173ffffffffffffffffffffffffffffffffffffffff168173ffffffffffffffffffffffffffffffffffffffff167f8be0079c531659141344cd1fd0a4f28419497f9722a3daafe3b4186f6b6457e060405160405180910390a35050565b600033905090565b6040518061010001604052806000815260200160608152602001606081526020016060815260200160608152602001600073ffffffffffffffffffffffffffffffffffffffff16815260200160007bffffffffffffffffffffffffffffffffffffffffffffffffffffffff19168152602001611303611409565b81525090565b6040518060200160405280606081525090565b60405180606001604052806060815260200160006015811115611342576113416116e1565b5b8152602001606081525090565b60405180608001604052806060815260200160608152602001611370611423565b815260200161137d611409565b81525090565b82805461138f90612172565b90600052602060002090601f0160209004810192826113b157600085556113f8565b82601f106113ca57803560ff19168380011785556113f8565b828001600101855582156113f8579182015b828111156113f75782358255916020019190600101906113dc565b5b509050611405919061144a565b5090565b604051806040016040528060008152602001606081525090565b60405180606001604052806060815260200160608152602001611444611309565b81525090565b5b8082111561146357600081600090555060010161144b565b5090565b6000604051905090565b600080fd5b600080fd5b600080fd5b600080fd5b600080fd5b60008083601f8401126114a05761149f61147b565b5b8235905067ffffffffffffffff8111156114bd576114bc611480565b5b6020830191508360018202830111156114d9576114d8611485565b5b9250929050565b60007fffffffff0000000000000000000000000000000000000000000000000000000082169050919050565b611515816114e0565b811461152057600080fd5b50565b6000813590506115328161150c565b92915050565b60008060008060006060868803121561155457611553611471565b5b600086013567ffffffffffffffff81111561157257611571611476565b5b61157e8882890161148a565b9550955050602061159188828901611523565b935050604086013567ffffffffffffffff8111156115b2576115b1611476565b5b6115be8882890161148a565b92509250509295509295909350565b60008115159050919050565b6115e2816115cd565b82525050565b60006020820190506115fd60008301846115d9565b92915050565b6000819050919050565b61161681611603565b82525050565b600081519050919050565b600082825260208201905092915050565b60005b8381101561165657808201518184015260208101905061163b565b83811115611665576000848401525b50505050565b6000601f19601f8301169050919050565b60006116878261161c565b6116918185611627565b93506116a1818560208601611638565b6116aa8161166b565b840191505092915050565b600081519050919050565b600082825260208201905092915050565b6000819050602082019050919050565b7f4e487b7100000000000000000000000000000000000000000000000000000000600052602160045260246000fd5b60098110611721576117206116e1565b5b50565b600081905061173282611710565b919050565b600061174282611724565b9050919050565b61175281611737565b82525050565b60006040830160008301516117706000860182611749565b5060208301518482036020860152611788828261167c565b9150508091505092915050565b60006117a18383611758565b905092915050565b6000602082019050919050565b60006117c1826116b5565b6117cb81856116c0565b9350836020820285016117dd856116d1565b8060005b8581101561181957848403895281516117fa8582611795565b9450611805836117a9565b925060208a019950506001810190506117e1565b50829750879550505050505092915050565b600073ffffffffffffffffffffffffffffffffffffffff82169050919050565b60006118568261182b565b9050919050565b6118668161184b565b82525050565b611875816114e0565b82525050565b600081519050919050565b600082825260208201905092915050565b60006118a28261187b565b6118ac8185611886565b93506118bc818560208601611638565b6118c58161166b565b840191505092915050565b60006040830160008301516118e8600086018261160d565b50602083015184820360208601526119008282611897565b9150508091505092915050565b600061010083016000830151611926600086018261160d565b506020830151848203602086015261193e828261167c565b91505060408301518482036040860152611958828261167c565b91505060608301518482036060860152611972828261167c565b9150506080830151848203608086015261198c82826117b6565b91505060a08301516119a160a086018261185d565b5060c08301516119b460c086018261186c565b5060e083015184820360e08601526119cc82826118d0565b9150508091505092915050565b600060208201905081810360008301526119f3818461190d565b905092915050565b611a048161184b565b8114611a0f57600080fd5b50565b600081359050611a21816119fb565b92915050565b600060208284031215611a3d57611a3c611471565b5b6000611a4b84828501611a12565b91505092915050565b600080fd5b600060208284031215611a6f57611a6e611a54565b5b81905092915050565b600060208284031215611a8e57611a8d611471565b5b600082013567ffffffffffffffff811115611aac57611aab611476565b5b611ab884828501611a59565b91505092915050565b60006fffffffffffffffffffffffffffffffff82169050919050565b611ae681611ac1565b8114611af157600080fd5b50565b600081359050611b0381611add565b92915050565b600080600080600060608688031215611b2557611b24611471565b5b600086013567ffffffffffffffff811115611b4357611b42611476565b5b611b4f8882890161148a565b9550955050602086013567ffffffffffffffff811115611b7257611b71611476565b5b611b7e8882890161148a565b93509350506040611b9188828901611af4565b9150509295509295909350565b600080fd5b7f4e487b7100000000000000000000000000000000000000000000000000000000600052604160045260246000fd5b611bdb8261166b565b810181811067ffffffffffffffff82111715611bfa57611bf9611ba3565b5b80604052505050565b6000611c0d611467565b9050611c198282611bd2565b919050565b600067ffffffffffffffff821115611c3957611c38611ba3565b5b611c428261166b565b9050602081019050919050565b82818337600083830152505050565b6000611c71611c6c84611c1e565b611c03565b905082815260208101848484011115611c8d57611c8c611b9e565b5b611c98848285611c4f565b509392505050565b600082601f830112611cb557611cb461147b565b5b8135611cc5848260208601611c5e565b91505092915050565b60008060408385031215611ce557611ce4611471565b5b600083013567ffffffffffffffff811115611d0357611d02611476565b5b611d0f85828601611ca0565b925050602083013567ffffffffffffffff811115611d3057611d2f611476565b5b611d3c85828601611ca0565b9150509250929050565b600082825260208201905092915050565b6000611d628261161c565b611d6c8185611d46565b9350611d7c818560208601611638565b611d858161166b565b840191505092915050565b60006060820190508181036000830152611daa8186611d57565b90508181036020830152611dbe8185611d57565b9050611dcd60408301846115d9565b949350505050565b600080600080600060608688031215611df157611df0611471565b5b600086013567ffffffffffffffff811115611e0f57611e0e611476565b5b611e1b8882890161148a565b9550955050602086013567ffffffffffffffff811115611e3e57611e3d611476565b5b611e4a8882890161148a565b93509350506040611e5d88828901611523565b9150509295509295909350565b611e738161184b565b82525050565b6000602082019050611e8e6000830184611e6a565b92915050565b6000806000806000806000806080898b031215611eb457611eb3611471565b5b600089013567ffffffffffffffff811115611ed257611ed1611476565b5b611ede8b828c0161148a565b9850985050602089013567ffffffffffffffff811115611f0157611f00611476565b5b611f0d8b828c0161148a565b9650965050604089013567ffffffffffffffff811115611f3057611f2f611476565b5b611f3c8b828c0161148a565b9450945050606089013567ffffffffffffffff811115611f5f57611f5e611476565b5b611f6b8b828c0161148a565b92509250509295985092959890939650565b60008060408385031215611f9457611f93611471565b5b600083013567ffffffffffffffff811115611fb257611fb1611476565b5b611fbe85828601611ca0565b9250506020611fcf85828601611523565b9150509250929050565b60006020820190508181036000830152611ff38184611d57565b905092915050565b6000819050919050565b600061202061201b6120168461182b565b611ffb565b61182b565b9050919050565b600061203282612005565b9050919050565b600061204482612027565b9050919050565b61205481612039565b82525050565b600060208201905061206f600083018461204b565b92915050565b600061208082612027565b9050919050565b61209081612075565b82525050565b60006020820190506120ab6000830184612087565b92915050565b600081905092915050565b60006120c883856120b1565b93506120d5838584611c4f565b82840190509392505050565b60006120ee8284866120bc565b91508190509392505050565b600081905092915050565b600061211183856120fa565b935061211e838584611c4f565b82840190509392505050565b6000612137828486612105565b91508190509392505050565b7f4e487b7100000000000000000000000000000000000000000000000000000000600052602260045260246000fd5b6000600282049050600182168061218a57607f821691505b6020821081141561219e5761219d612143565b5b50919050565b60008190508160005260206000209050919050565b600081546121c681612172565b6121d081866120fa565b945060018216600081146121eb57600181146121fc5761222f565b60ff1983168652818601935061222f565b612205856121a4565b60005b8381101561222757815481890152600182019150602081019050612208565b838801955050505b50505092915050565b600061224482846121b9565b915081905092915050565b7f53656e64657220646f6573206e6f74206d617463680000000000000000000000600082015250565b6000612285601583611d46565b91506122908261224f565b602082019050919050565b600060208201905081810360008301526122b481612278565b9050919050565b600080fd5b600080fd5b6122ce81611603565b81146122d957600080fd5b50565b6000815190506122eb816122c5565b92915050565b60006123046122ff84611c1e565b611c03565b9050828152602081018484840111156123205761231f611b9e565b5b61232b848285611638565b509392505050565b600082601f8301126123485761234761147b565b5b81516123588482602086016122f1565b91505092915050565b600067ffffffffffffffff82111561237c5761237b611ba3565b5b602082029050602081019050919050565b6009811061239a57600080fd5b50565b6000815190506123ac8161238d565b92915050565b6000604082840312156123c8576123c76122bb565b5b6123d26040611c03565b905060006123e28482850161239d565b600083015250602082015167ffffffffffffffff811115612406576124056122c0565b5b61241284828501612333565b60208301525092915050565b600061243161242c84612361565b611c03565b9050808382526020820190506020840283018581111561245457612453611485565b5b835b8181101561249b57805167ffffffffffffffff8111156124795761247861147b565b5b80860161248689826123b2565b85526020850194505050602081019050612456565b5050509392505050565b600082601f8301126124ba576124b961147b565b5b81516124ca84826020860161241e565b91505092915050565b6000815190506124e2816119fb565b92915050565b6000815190506124f78161150c565b92915050565b600067ffffffffffffffff82111561251857612517611ba3565b5b6125218261166b565b9050602081019050919050565b600061254161253c846124fd565b611c03565b90508281526020810184848401111561255d5761255c611b9e565b5b612568848285611638565b509392505050565b600082601f8301126125855761258461147b565b5b815161259584826020860161252e565b91505092915050565b6000604082840312156125b4576125b36122bb565b5b6125be6040611c03565b905060006125ce848285016122dc565b600083015250602082015167ffffffffffffffff8111156125f2576125f16122c0565b5b6125fe84828501612570565b60208301525092915050565b60006101008284031215612621576126206122bb565b5b61262c610100611c03565b9050600061263c848285016122dc565b600083015250602082015167ffffffffffffffff8111156126605761265f6122c0565b5b61266c84828501612333565b602083015250604082015167ffffffffffffffff8111156126905761268f6122c0565b5b61269c84828501612333565b604083015250606082015167ffffffffffffffff8111156126c0576126bf6122c0565b5b6126cc84828501612333565b606083015250608082015167ffffffffffffffff8111156126f0576126ef6122c0565b5b6126fc848285016124a5565b60808301525060a0612710848285016124d3565b60a08301525060c0612724848285016124e8565b60c08301525060e082015167ffffffffffffffff811115612748576127476122c0565b5b6127548482850161259e565b60e08301525092915050565b60006020828403121561277657612775611471565b5b600082015167ffffffffffffffff81111561279457612793611476565b5b6127a08482850161260a565b91505092915050565b7f4c6f636b65723a2063616c6c6572206973206e6f742043726f7373436861696e600082015250565b60006127df602083611d46565b91506127ea826127a9565b602082019050919050565b6000602082019050818103600083015261280e816127d2565b9050919050565b600080fd5b600080fd5b600080fd5b6000808335600160200384360303811261284157612840612815565b5b80840192508235915067ffffffffffffffff8211156128635761286261281a565b5b60208301925060208202360383131561287f5761287e61281f565b5b509250929050565b7f4e487b7100000000000000000000000000000000000000000000000000000000600052603260045260246000fd5b6000823560016060038336030381126128d2576128d1612815565b5b80830191505092915050565b600080833560016020038436030381126128fb576128fa612815565b5b80840192508235915067ffffffffffffffff82111561291d5761291c61281a565b5b6020830192506001820236038313156129395761293861281f565b5b509250929050565b600067ffffffffffffffff82111561295c5761295b611ba3565b5b602082029050602081019050919050565b600060ff82169050919050565b6129838161296d565b811461298e57600080fd5b50565b6000813590506129a08161297a565b92915050565b60006129b96129b484612941565b611c03565b905080838252602082019050602084028301858111156129dc576129db611485565b5b835b81811015612a0557806129f18882612991565b8452602084019350506020810190506129de565b5050509392505050565b600082601f830112612a2457612a2361147b565b5b8135612a348482602086016129a6565b91505092915050565b600060208284031215612a5357612a52611471565b5b600082013567ffffffffffffffff811115612a7157612a70611476565b5b612a7d84828501612a0f565b91505092915050565b600060208284031215612a9c57612a9b611471565b5b6000612aaa84828501611af4565b91505092915050565b6000612ace612ac9612ac484611ac1565b611ffb565b611603565b9050919050565b612ade81612ab3565b82525050565b6000604082019050612af96000830185611e6a565b612b066020830184612ad5565b9392505050565b6000612b198385611d46565b9350612b26838584611c4f565b612b2f8361166b565b840190509392505050565b60006020820190508181036000830152612b55818486612b0d565b90509392505050565b612b6781611ac1565b82525050565b6000602082019050612b826000830184612b5e565b92915050565b7f72656365697665546f6b656e0000000000000000000000000000000000000000600082015250565b6000612bbe600c836120b1565b9150612bc982612b88565b600c82019050919050565b6000612bdf82612bb1565b9150819050919050565b7f616374696f6e206e6f7420726567697374657265640000000000000000000000600082015250565b6000612c1f601583611d46565b9150612c2a82612be9565b602082019050919050565b60006020820190508181036000830152612c4e81612c12565b9050919050565b600081519050919050565b600082825260208201905092915050565b6000819050602082019050919050565b60168110612c9257612c916116e1565b5b50565b6000819050612ca382612c81565b919050565b6000612cb382612c95565b9050919050565b612cc381612ca8565b82525050565b60006060830160008301518482036000860152612ce6828261167c565b9150506020830151612cfb6020860182612cba565b5060408301518482036040860152612d138282611897565b9150508091505092915050565b6000612d2c8383612cc9565b905092915050565b6000602082019050919050565b6000612d4c82612c55565b612d568185612c60565b935083602082028501612d6885612c71565b8060005b85811015612da45784840389528151612d858582612d20565b9450612d9083612d34565b925060208a01995050600181019050612d6c565b50829750879550505050505092915050565b60006020830160008301518482036000860152612dd38282612d41565b9150508091505092915050565b60006060830160008301518482036000860152612dfd828261167c565b91505060208301518482036020860152612e17828261167c565b91505060408301518482036040860152612e318282612db6565b9150508091505092915050565b60006080830160008301518482036000860152612e5b828261167c565b91505060208301518482036020860152612e7582826117b6565b91505060408301518482036040860152612e8f8282612de0565b91505060608301518482036060860152612ea982826118d0565b9150508091505092915050565b60006020820190508181036000830152612ed08184612e3e565b905092915050565b600060208284031215612eee57612eed611471565b5b6000612efc848285016122dc565b91505092915050565b7f4f776e61626c653a206e6577206f776e657220697320746865207a65726f206160008201527f6464726573730000000000000000000000000000000000000000000000000000602082015250565b6000612f61602683611d46565b9150612f6c82612f05565b604082019050919050565b60006020820190508181036000830152612f9081612f54565b9050919050565b7f4f776e61626c653a2063616c6c6572206973206e6f7420746865206f776e6572600082015250565b6000612fcd602083611d46565b9150612fd882612f97565b602082019050919050565b60006020820190508181036000830152612ffc81612fc0565b9050919050565b7f4e487b7100000000000000000000000000000000000000000000000000000000600052601160045260246000fd5b600061303d8261182b565b91506130488361182b565b92508273ffffffffffffffffffffffffffffffffffffffff0382111561307157613070613003565b5b828201905092915050565b600061308782611603565b91507fffffffffffffffffffffffffffffffffffffffffffffffffffffffffffffffff8214156130ba576130b9613003565b5b60018201905091905056fea26469706673582212209da00878da4a6c01bdbf4129174a1633d4aa3b43c679517174502f63459b9da164736f6c634300080c0033",
  "immutableReferences": {},
  "source": "// SPDX-License-Identifier: MIT\npragma solidity >=0.8.0 <0.9.0;\n\nimport \"@openzeppelin/contracts/access/Ownable.sol\";\nimport \"@hthuang/contracts/ContractBase.sol\";\nimport \"./DanteToken.sol\";\n\ncontract Locker is ContractBase {\n    // Destination contract info\n    struct DestnContract {\n        string contractAddress; // destination contract address\n        string funcName; // destination contract action name\n        bool used;\n    }\n\n    // Dante token address\n    DanteToken public token;\n\n    // Cross-chain destination contract map\n    mapping(string => mapping(string => DestnContract)) public destnContractMap;\n\n    // Cross-chain permitted contract map\n    mapping(string => mapping(bytes4 => string)) public permittedContractMap;\n\n    function setTokenContract(address _address) external onlyOwner {\n        token = DanteToken(_address);\n    }\n\n    function get_address(uint8[] memory u) internal pure returns (address) {\n        uint160 y = 0;\n        for (uint i = 0; i < u.length; i++) {\n            y <<= 8;\n            y += u[i];\n        }\n        return address(y);\n    }\n\n    /**\n     * Map tokens to another chain\n     * @param _toChain - to chain name\n     * @param _num - number of tokens that will be sent to chain `_toChain`\n     */\n    function transferToken(\n        string calldata _toChain,\n        string calldata _toAddress,\n        uint128 _num\n    ) external {\n        // Burn tokens\n        token.burn(msg.sender, _num);\n\n        // Construct payload\n        Payload memory data;\n        data.items = new PayloadItem[](2);\n        PayloadItem memory item = data.items[0];\n        item.name = \"to\";\n        item.msgType = MsgType.EvmString;\n        item.value = abi.encode(_toAddress);\n        item = data.items[1];\n        item.name = \"num\";\n        item.msgType = MsgType.EvmU128;\n        item.value = abi.encode(_num);\n\n        mapping(string => DestnContract) storage map = destnContractMap[_toChain];\n        DestnContract storage destnContract = map[\"receiveToken\"];\n        require(destnContract.used, \"action not registered\");\n\n        // Construct message\n        ISentMessage memory message;\n        message.toChain = _toChain;\n        message.session = Session(0, \"\");\n        message.content = Content(destnContract.contractAddress, destnContract.funcName, data);\n\n        crossChainContract.sendMessage(message);\n    }\n\n    /**\n     * Receive greeting info from other chains\n     * @param _payload - payload which contains greeting message\n     */\n    function receiveToken(Payload calldata _payload) public {\n        require(\n            msg.sender == address(crossChainContract),\n            \"Locker: caller is not CrossChain\"\n        );\n\n        // Parse payload\n        (uint8[] memory _u8arry) = abi.decode(_payload.items[0].value, (uint8[]));\n        (uint128 _num) = abi.decode(_payload.items[1].value, (uint128));\n        address _to = get_address(_u8arry);\n        \n        // Mint tokens\n        token.mint(_to, _num);\n    }\n\n    ///////////////////////////////////////////////\n    /////    Send messages to other chains   //////\n    ///////////////////////////////////////////////\n\n    /**\n     * Register destination contract info\n     * @param _funcName - function name to be called\n     * @param _toChain - destination chain name\n     * @param _contractAddress - destination contract address\n     * @param _contractFuncName - contract function name\n     */\n    function registerDestnContract(\n        string calldata _funcName,\n        string calldata _toChain,\n        string calldata _contractAddress,\n        string calldata _contractFuncName\n    ) external onlyOwner {\n        mapping(string => DestnContract) storage map = destnContractMap[_toChain];\n        DestnContract storage destnContract = map[_funcName];\n        destnContract.contractAddress = _contractAddress;\n        destnContract.funcName = _contractFuncName;\n        destnContract.used = true;\n    }\n\n    ///////////////////////////////////////////////\n    ///    Receive messages from other chains   ///\n    ///////////////////////////////////////////////\n\n    /**\n     * Authorize contracts of other chains to call the functions of this contract\n     * @param _chainName - from chain name\n     * @param _sender - sender of cross chain message\n     * @param _funcName - action name which allowed to be invoked\n     */\n    function registerPermittedContract(\n        string calldata _chainName,\n        string calldata _sender,\n        bytes4 _funcName\n    ) external onlyOwner {\n        mapping(bytes4 => string) storage map = permittedContractMap[\n            _chainName\n        ];\n        map[_funcName] = _sender;\n    }\n\n    /**\n     * This verify method will be invoked by the CrossChain contract automatically, ensure that only registered contract(registerSourceContract) calls are allowed\n     * @param _chainName - chain name of cross chain message\n     * @param _funcName - contract action name of cross chain message\n     * @param _sender - cross chain message sender\n     */\n    //  Will be deprecated soon\n    function verify(\n        string calldata _chainName,\n        bytes4 _funcName,\n        string calldata _sender\n    ) public view virtual returns (bool) {\n        mapping(bytes4 => string) storage map = permittedContractMap[\n            _chainName\n        ];\n        string storage sender = map[_funcName];\n        require(\n            keccak256(bytes(sender)) == keccak256(bytes(_sender)),\n            \"Sender does not match\"\n        );\n        return true;\n    }\n}\n",
  "sourcePath": "/home/george/program/dante/near-platon-bridge/platon/contracts/Locker.sol",
  "compiler": {
    "name": "solc",
    "version": "0.8.12+commit.f00d7308.Emscripten.clang"
  },
  "schemaVersion": "3.4.6",
  "updatedAt": "2022-07-13T08:07:18.669Z",
  "devdoc": {
    "kind": "dev",
    "methods": {
      "owner()": {
        "details": "Returns the address of the current owner."
      },
      "receiveToken(((string,uint8,bytes)[]))": {
        "params": {
          "_payload": "- payload which contains greeting message"
        }
      },
      "registerDestnContract(string,string,string,string)": {
        "params": {
          "_contractAddress": "- destination contract address",
          "_contractFuncName": "- contract function name",
          "_funcName": "- function name to be called",
          "_toChain": "- destination chain name"
        }
      },
      "registerPermittedContract(string,string,bytes4)": {
        "params": {
          "_chainName": "- from chain name",
          "_funcName": "- action name which allowed to be invoked",
          "_sender": "- sender of cross chain message"
        }
      },
      "renounceOwnership()": {
        "details": "Leaves the contract without owner. It will not be possible to call `onlyOwner` functions anymore. Can only be called by the current owner. NOTE: Renouncing ownership will leave the contract without an owner, thereby removing any functionality that is only available to the owner."
      },
      "setCrossChainContract(address)": {
        "params": {
          "_address": "- cross chain contract address"
        }
      },
      "transferOwnership(address)": {
        "details": "Transfers ownership of the contract to a new account (`newOwner`). Can only be called by the current owner."
      },
      "transferToken(string,string,uint128)": {
        "params": {
          "_num": "- number of tokens that will be sent to chain `_toChain`",
          "_toChain": "- to chain name"
        }
      },
      "verify(string,bytes4,string)": {
        "params": {
          "_chainName": "- chain name of cross chain message",
          "_funcName": "- contract action name of cross chain message",
          "_sender": "- cross chain message sender"
        }
      }
    },
    "version": 1
  },
  "userdoc": {
    "kind": "user",
    "methods": {
      "receiveToken(((string,uint8,bytes)[]))": {
        "notice": "Receive greeting info from other chains"
      },
      "registerDestnContract(string,string,string,string)": {
        "notice": "Register destination contract info"
      },
      "registerPermittedContract(string,string,bytes4)": {
        "notice": "Authorize contracts of other chains to call the functions of this contract"
      },
      "setCrossChainContract(address)": {
        "notice": "Set cross chain contract"
      },
      "transferToken(string,string,uint128)": {
        "notice": "Map tokens to another chain"
      },
      "verify(string,bytes4,string)": {
        "notice": "This verify method will be invoked by the CrossChain contract automatically, ensure that only registered contract(registerSourceContract) calls are allowed"
      }
    },
    "version": 1
  }
}